:020000040800F2
:10000000008001208D090008F5080008FD0800089F
:10001000050900080D090008150900080000000086
:100020000000000000000000000000001D090008A2
:100030002B090008000000003909000847090008E2
:10004000DD090008DD090008DD090008DD090008F8
:10005000DD090008DD090008DD090008DD090008E8
:10006000DD090008DD090008DD090008DD090008D8
:10007000DD090008DD090008DD090008DD090008C8
:10008000DD090008DD090008DD090008DD090008B8
:10009000DD090008DD090008DD090008DD090008A8
:1000A000DD090008DD090008DD090008DD09000898
:1000B000DD090008DD090008DD090008DD09000888
:1000C000DD090008DD090008DD090008DD09000878
:1000D000DD09000855090008DD090008DD090008F0
:1000E000DD090008DD090008DD090008DD09000858
:1000F000DD090008DD090008DD090008DD09000848
:10010000DD090008DD090008DD090008DD09000837
:10011000DD090008DD090008DD090008DD09000827
:10012000DD090008DD090008DD090008DD09000817
:10013000DD090008DD090008DD090008DD09000807
:10014000DD090008DD090008DD090008DD090008F7
:10015000DD090008DD090008DD090008DD090008E7
:10016000DD090008DD090008DD090008DD090008D7
:10017000DD090008DD090008DD09000800000000B5
:08018000DD090008DD0900089B
:1001880010B5054C237833B9044B13B10448AFF3C9
:1001980000800123237010BD0C0000200000000027
:1001A8003039000808B5034B1BB103490348AFF3C6
:1001B800008008BD00000000100000203039000851
:1001C80053B94AB9002908BF00281CBF4FF0FF31B6
:1001D8004FF0FF3000F06AB9ADF1080C6DE904CEBC
:1001E80000F006F8DDF804E0DDE9022304B070470A
:1001F8002DE9F047089D0C46002B4ED194468C45BE
:100208008646B2FA82F262D94AB1C2F1200391401D
:1002180020FA03F30CFA02FC194300FA02FE4FEA33
:100228001C471FFA8CF6B1FBF7F44FEA1E4307FB95
:10023800141143EA014304FB06F199420AD91CEB65
:10024800030304F1FF3080F01281994240F20F81DC
:10025800023C6344591A1FFA8EF3B1FBF7F007FB0F
:10026800101143EA014300FB06F69E420AD91CEB33
:10027800030300F1FF3180F0FC809E4240F2F980D8
:10028800634402389B1B40EA044000211DB1D3405F
:100298000022C5E90032BDE8F0878B4205D90DB1CF
:1002A800C5E9000100210846F5E7B3FA83F1002902
:1002B80046D1A34202D39042C0F0F080861A64EB84
:1002C80003030120002DE6D0C5E90063E3E7002A17
:1002D80040F09080A1EB0C044FEA1C481FFA8CF701
:1002E8000121B4FBF8F64FEA1E4308FB164443EA23
:1002F800044307FB06F0984208D91CEB030306F1F8
:10030800FF3402D2984200F2CD8026461C1A1FFA0A
:100318008EF3B4FBF8F008FB104443EA044300FBF7
:1003280007F79F4208D91CEB030300F1FF3402D200
:100338009F4200F2B0802046DB1B40EA0640A5E75A
:10034800C1F120068B4022FA06F71F4320FA06FC6B
:1003580004FA01F343EA0C03F44000FA01F8380CFC
:100368004FEA1349B4FBF0FE1FFA87FC00FB1E445A
:1003780049EA04440EFB0CF9A14502FA01F20AD934
:100388003C190EF1FF3A80F08480A14540F281804B
:10039800AEF1020E3C44A4EB09041FFA83F9B4FB46
:1003A800F0F300FB134449EA044403FB0CFCA445A6
:1003B80007D93C1903F1FF3067D2A44565D9023B40
:1003C8003C4443EA0E40A0FB0293A4EB0C049C427D
:1003D800CE469C4651D34ED055B1B8EB0E0364EBD4
:1003E8000C0404FA06F6CB401E43CC40C5E9006471
:1003F800002150E7C2F1200320FA03F10CFA02FCB5
:1004080024FA03F394400C434FEA1C4800FA02FE16
:100418001FFA8CF7B3FBF8F008FB1031230C43EA02
:10042800014300FB07F1994208D91CEB030300F1D3
:10043800FF362CD299422AD9023863445B1AA4B2F7
:10044800B3FBF8F108FB113344EA034401FB07F35B
:10045800A34208D91CEB040401F1FF3613D2A342CE
:1004680011D902396444E41A41EA004139E70446E3
:10047800F0E6084606E7C845AED2B9EB020E63EBD4
:10048800070C0138A8E73146EDE7034699E73046FF
:10049800D4E7D6467FE7634402384DE7064623464D
:1004A80008460FE7023E634430E700BF704700BFCD
:1004B80080B500AF00F090FA00F008F800F0ACF852
:1004C80000F07AF800F048F800BFFDE780B596B074
:1004D80000AF07F1140344220021184603F0F7F98E
:1004E8003B4600221A605A609A60DA601A614FF43B
:1004F800007000F04DFE0346002B01D000F022F9F9
:1005080002237B614FF480733B6210237B620023DC
:10051800FB6307F11403184600F090FE0346002B16
:1005280001D000F00FF90F233B6001237B6000230B
:10053800BB600023FB6000233B613B46002118465B
:1005480001F058FA0346002B01D000F0FBF800BF79
:100558005837BD4680BD000080B500AF144B154A22
:100568001A60134B4FF4E1325A60114B00229A6023
:100578000F4B0022DA600E4B00221A610C4B0C2242
:100588005A610B4B00229A61094B0022DA61084B31
:1005980000221A62064B00225A62054802F00AF944
:1005A8000346002B01D000F0CDF800BF80BD00BF8E
:1005B800280000200038014080B500AF144B154AD0
:1005C8001A60134B4FF4E1325A60114B00229A60C3
:1005D8000F4B0022DA600E4B00221A610C4B0C22E2
:1005E8005A610B4B00229A61094B0022DA61084BD1
:1005F80000221A62064B00225A62054802F0DAF815
:100608000346002B01D000F09DF800BF80BD00BF5D
:10061800B00000200044004080B58AB000AF07F168
:10062800140300221A605A609A60DA601A61424B19
:10063800DB6C414A43F00403D3643F4BDB6C03F0AB
:1006480004033B613B693C4BDB6C3B4A43F0800352
:10065800D364394BDB6C03F08003FB60FB68364BDB
:10066800DB6C354A43F00103D364334BDB6C03F096
:100678000103BB60BB68304BDB6C2F4A43F00203BD
:10068800D3642D4BDB6C03F002037B607B68002294
:10069800A0214FF0904000F055FD0022302127485E
:1006A80000F050FD4FF400537B614FF40413BB611D
:1006B8000023FB6107F114031946204800F098FB5A
:1006C800A0237B610123BB610023FB6100233B6204
:1006D80007F1140319464FF0904000F089FB3023CE
:1006E8007B610123BB610023FB6100233B6207F1AF
:1006F80014031946114800F07BFB40F604037B61A4
:100708000323BB610023FB6107F1140319460C485E
:1007180000F06EFB4FF480637B610023BB61002314
:10072800FB6107F114031946054800F061FB00BF9F
:100738002837BD4680BD00BF0010024000080048B1
:100748000004004880B400AF72B600BF00BFFDE7E8
:1007580080B483B000AF0F4B1B6E0E4A43F0010309
:1007680013660C4B1B6E03F001037B607B68094B1F
:100778009B6D084A43F080539365064B9B6D03F0CD
:1007880080533B603B6800BF0C37BD465DF8047B77
:10079800704700BF0010024080B5AEB000AF78606F
:1007A80007F1A40300221A605A609A60DA601A619D
:1007B80007F11C0388220021184603F088F87B689B
:1007C8001B68474A934245D10123FB6100237B659F
:1007D80007F11C03184601F031FB0346002B01D03A
:1007E800FFF7B0FF3F4B1B6E3E4A43F4804313664E
:1007F8003C4B1B6E03F48043BB61BB69394BDB6C1C
:10080800384A43F00103D364364BDB6C03F0010331
:100818007B617B694FF4C063C7F8A4300223C7F833
:10082800A8300023C7F8AC300323C7F8B03007233B
:10083800C7F8B43007F1A40319464FF0904000F010
:10084800D7FA00220021252000F01DFA252000F00B
:1008580036FA40E07B681B68234A93423BD1022367
:10086800FB610023BB6507F11C03184601F0E6FA9B
:100878000346002B01D0FFF765FF1A4B9B6D194A01
:1008880043F400339365174B9B6D03F400333B61CE
:100898003B69144BDB6C134A43F00103D364114BDF
:1008A800DB6C03F00103FB60FB680C23C7F8A43082
:1008B8000223C7F8A8300023C7F8AC300323C7F8D1
:1008C800B0300723C7F8B43007F1A40319464FF036
:1008D800904000F08DFA00BFB837BD4680BD00BF1C
:1008E80000380140001002400044004080B400AFCE
:1008F80000BFFDE780B400AF00BFFDE780B400AFE4
:1009080000BFFDE780B400AF00BFFDE780B400AFD3
:1009180000BFFDE780B400AF00BFBD465DF8047BB3
:10092800704780B400AF00BFBD465DF8047B7047D8
:1009380080B400AF00BFBD465DF8047B704780B54A
:1009480000AF00F0A5F800BF80BD000080B500AF83
:10095800024801F07DFF00BF80BD00BF28000020D5
:1009680080B400AF064BD3F88830054A43F47003CF
:10097800C2F8883000BFBD465DF8047B704700BFF1
:1009880000ED00E0DFF834D0FFF7EAFF0C480D492E
:100998000D4A002302E0D458C4500433C4188C42D2
:1009A800F9D30A4A0A4C002301E013600432A24238
:1009B800FBD302F095FFFFF77BFDFEE700800120E7
:1009C800000000200C000020A03900080C000020C6
:1009D8003C010020FEE7000080B582B000AF002394
:1009E800FB710C4B1B680B4A43F4807313600320A4
:1009F80000F03EF9002000F00FF80346002B02D06B
:100A08000123FB7101E0FFF7A3FEFB7918460837C5
:100A1800BD4680BD0020024080B584B000AF78603C
:100A28000023FB73174B1B78002B23D0164B1A6837
:100A3800144B1B7819464FF47A73B3FBF1F3B2FBEE
:100A4800F3F3184600F049F90346002B0FD17B68F1
:100A58000F2B09D8002279684FF0FF3000F013F906
:100A68000A4A7B68136007E00123FB7304E0012353
:100A7800FB7301E00123FB73FB7B18461037BD466F
:100A880080BD00BF080000200000002004000020F6
:100A980080B400AF064B1B781A46064B1B681344FC
:100AA800044A136000BFBD465DF8047B704700BF71
:100AB800080000203801002080B400AF034B1B68F9
:100AC8001846BD465DF8047B704700BF380100201A
:100AD80080B485B000AF78607B6803F00703FB60E3
:100AE8000C4BDB68BB60BA684FF6FF031340BB6072
:100AF800FB681A02BB68134343F0BF6343F4003337
:100B0800BB60044ABB68D36000BF1437BD465DF8BC
:100B1800047B704700ED00E080B400AF044BDB6855
:100B28001B0A03F007031846BD465DF8047B7047AF
:100B380000ED00E080B483B000AF0346FB7197F985
:100B48000730002B0BDBFB7903F01F02074997F9ED
:100B580007305B09012000FA02F241F8232000BFA8
:100B68000C37BD465DF8047B704700BF00E100E02C
:100B780080B483B000AF03463960FB7197F9073042
:100B8800002B0ADB3B68DAB20C4997F907301201EF
:100B9800D2B20B4483F800230AE03B68DAB2084972
:100BA800FB7903F00F03043B1201D2B20B441A760F
:100BB80000BF0C37BD465DF8047B704700E100E0DC
:100BC80000ED00E080B489B000AFF860B9607A60E9
:100BD800FB6803F00703FB61FB69C3F10703042B00
:100BE80028BF0423BB61FB690433062B02D9FB69C8
:100BF800033B00E000237B614FF0FF32BB6902FA40
:100C080003F3DA43BB681A407B699A404FF0FF311F
:100C18007B6901FA03F3D9437B680B4013431846F9
:100C28002437BD465DF8047B7047000080B582B06C
:100C380000AF78607B68013BB3F1807F01D301236B
:100C48000FE00A4A7B68013B53600F214FF0FF30E9
:100C5800FFF78EFF054B00229A60044B07221A60AB
:100C6800002318460837BD4680BD00BF10E000E0ED
:100C780080B582B000AF78607868FFF729FF00BFC1
:100C88000837BD4680BD80B586B000AF0346B96061
:100C98007A60FB7300237B61FFF73EFF78617A6817
:100CA800B9687869FFF78EFF024697F90F30114649
:100CB8001846FFF75DFF00BF1837BD4680BD80B5F9
:100CC80082B000AF0346FB7197F907301846FFF76B
:100CD80031FF00BF0837BD4680BD80B582B000AF88
:100CE80078607868FFF7A2FF034618460837BD46C4
:100CF80080BD80B485B000AF78600023FB737B684B
:100D080093F82530DBB2022B08D07B680422DA6323
:100D18007B68002283F82420012322E07B681B687B
:100D28001A687B681B6822F00E021A607B681B68D1
:100D38001A687B681B6822F001021A607B685B6C8A
:100D480003F01C027B681B6C012101FA02F25A6055
:100D58007B68012283F825207B68002283F8242001
:100D6800FB7B18461437BD465DF8047B704780B599
:100D780084B000AF78600023FB737B6893F825305C
:100D8800DBB2022B05D07B680422DA630123FB73F4
:100D980029E07B681B681A687B681B6822F00E02D2
:100DA8001A607B681B681A687B681B6822F001025E
:100DB8001A607B685B6C03F01C027B681B6C01216A
:100DC80001FA02F25A607B68012283F825207B68C9
:100DD800002283F824207B689B6B002B03D07B6860
:100DE8009B6B78689847FB7B18461037BD4680BDDB
:100DF80080B487B000AF7860396000237B617FE101
:100E08003B681A6801217B6901FA03F31340FB6010
:100E1800FB68002B00F071813B685B6803F00303FB
:100E2800012B05D03B685B6803F00303022B30D12C
:100E38007B689B683B617B695B00032202FA03F3D2
:100E4800DB433A6913403B613B68DA687B695B00C6
:100E580002FA03F33A6913433B617B683A699A6083
:100E68007B685B683B6101227B6902FA03F3DB4321
:100E78003A6913403B613B685B681B0903F0010258
:100E88007B6902FA03F33A6913433B617B683A6969
:100E98005A603B685B6803F00303032B18D17B6837
:100EA800DB6A3B6101227B6902FA03F3DB433A699F
:100EB80013403B613B685B68DB0803F001027B6918
:100EC80002FA03F33A6913433B617B683A69DA62D1
:100ED8003B685B6803F00303032B17D07B68DB6870
:100EE8003B617B695B00032202FA03F3DB433A6947
:100EF80013403B613B689A687B695B0002FA03F325
:100F08003A6913433B617B683A69DA603B685B681E
:100F180003F00303022B23D17B69DA087B680832CC
:100F280053F822303B617B6903F007039B000F22D3
:100F380002FA03F3DB433A6913403B613B681A69E1
:100F48007B6903F007039B0002FA03F33A69134332
:100F58003B617B69DA087B680832396943F82210FB
:100F68007B681B683B617B695B00032202FA03F321
:100F7800DB433A6913403B613B685B6803F003025B
:100F88007B695B0002FA03F33A6913433B617B68B0
:100F98003A691A603B685B6803F44033002B00F041
:100FA800AC805F4B1B6E5E4A43F0010313665C4BDB
:100FB8001B6E03F00103BB60BB685A4A7B699B0840
:100FC800023352F823303B617B6903F003039B0033
:100FD8000F2202FA03F3DB433A6913403B617B6853
:100FE800B3F1904F25D07B684F4A93421FD07B685E
:100FF8004E4A934219D07B684D4A934213D07B687E
:101008004C4A93420DD07B684B4A934207D07B6889
:101018004A4A934201D106230CE007230AE005233C
:1010280008E0042306E0032304E0022302E001238E
:1010380000E000237A6902F00302920093403A69C3
:1010480013433B6137497B699B0802333A6941F88E
:1010580023203B4B9B683B61FB68DB433A691340A9
:101068003B613B685B6803F48013002B03D03A694B
:10107800FB6813433B61324A3B699360304BDB6842
:101088003B61FB68DB433A6913403B613B685B6843
:1010980003F40013002B03D03A69FB6813433B6148
:1010A800274A3B69D360264B5B683B61FB68DB439F
:1010B8003A6913403B613B685B6803F40033002BDB
:1010C80003D03A69FB6813433B611D4A3B6953608F
:1010D8001B4B1B683B61FB68DB433A6913403B6170
:1010E8003B685B6803F48033002B03D03A69FB68E4
:1010F80013433B61124A3B6913607B6901337B618F
:101108003B681A687B6922FA03F3002B7FF478AEF8
:1011180000BF00BF1C37BD465DF8047B704700BFA9
:101128000010024000000140000400480008004888
:10113800000C00480010004800140048001800483F
:101148000004014080B483B000AF78600B467B8018
:1011580013467B707B78002B03D07A887B689A6172
:1011680002E07A887B689A6200BF0C37BD465DF85A
:10117800047B704780B400AF044B1B6803F4C06362
:101188001846BD465DF8047B704700BF00700040FC
:1011980080B485B000AF78607B68B3F5007F30D14C
:1011A800234B1B6803F4C063B3F5007F38D0204B92
:1011B8001B6823F4C0631E4A43F4007313601D4B7D
:1011C8001B68322202FB03F31B4AA2FB03239B0C7E
:1011D8000133FB6002E0FB68013BFB60144B5B6979
:1011E80003F48063B3F5806F02D1FB68002BF2D162
:1011F8000F4B5B6903F48063B3F5806F10D1032351
:101208000FE00B4B1B6803F4C063B3F5806F07D086
:10121800074B1B6823F4C063054A43F480631360DB
:10122800002318461437BD465DF8047B704700BF9D
:10123800007000400000002083DE1B4380B588B0AA
:1012480000AF78607B68002B01D10123CAE3974B7C
:101258009B6803F00C03BB61944BDB6803F003034A
:101268007B617B681B6803F01003002B00F0E480AF
:10127800BB69002B07D0BB690C2B40F08B807B69C6
:10128800012B40F08780894B1B6803F00203002B79
:1012980005D07B689B69002B01D10123A2E37B6801
:1012A8001A6A824B1B6803F00803002B04D07F4B9B
:1012B8001B6803F0F00305E07C4BD3F894301B095E
:1012C80003F0F003934223D27B681B6A184600F0B0
:1012D80055FD0346002B01D0012383E3734B1B68A4
:1012E800724A43F008031360704B1B6823F0F00246
:1012F8007B681B6A6D4913430B606C4B5B6823F476
:101308007F427B68DB691B02684913434B6025E019
:10131800664B1B68654A43F008031360634B1B6800
:1013280023F0F0027B681B6A604913430B605F4B34
:101338005B6823F47F427B68DB691B025B491343CC
:101348004B60BB69002B09D17B681B6A184600F00B
:1013580015FD0346002B01D0012343E300F04AFCAE
:101368000246524B9B681B0903F00F035049CB5CA4
:1013780003F01F0322FA03F34E4A13604E4B1B6817
:101388001846FFF749FB0346FB73FB7B002B52D043
:10139800FB7B27E37B689B69002B32D0434B1B68A0
:1013A800424A43F001031360FFF786FB386108E007
:1013B800FFF782FB02463B69D31A022B01D90323AC
:1013C80010E33A4B1B6803F00203002BF0D0374BB5
:1013D8001B68364A43F008031360344B1B6823F03C
:1013E800F0027B681B6A314913430B602F4B5B6823
:1013F80023F47F427B68DB691B022C4913434B6053
:101408001AE02A4B1B68294A23F001031360FFF7EF
:1014180053FB386108E0FFF74FFB02463B69D31ADC
:10142800022B01D90323DDE2204B1B6803F00203E2
:10143800002BF0D100E000BF7B681B6803F00103BC
:10144800002B74D0BB69082B05D0BB690C2B0ED1BF
:101458007B69032B0BD1154B1B6803F40033002B5E
:1014680064D07B685B68002B60D10123BAE27B689B
:101478005B68B3F5803F06D10C4B1B680B4A43F4FD
:101488008033136026E07B685B68B3F5A02F15D125
:10149800064B1B68054A43F480231360034B1B6803
:1014A800024A43F48033136014E000BF0010024086
:1014B800483900080000002004000020A04B1B68E9
:1014C8009F4A23F4803313609D4B1B689C4A23F486
:1014D800802313607B685B68002B13D0FFF7ECFA5E
:1014E800386108E0FFF7E8FA02463B69D31A642B33
:1014F80001D9032376E2924B1B6803F40033002BD7
:10150800F0D014E0FFF7D8FA386108E0FFF7D4FA12
:1015180002463B69D31A642B01D9032362E2884B44
:101528001B6803F40033002BF0D100E000BF7B6898
:101538001B6803F00203002B60D0BB69042B05D0A5
:10154800BB690C2B19D17B69022B16D17C4B1B680C
:1015580003F48063002B05D07B68DB68002B01D186
:1015680001233FE2764B5B6823F0F8527B681B69E6
:101578001B06734913434B6040E07B68DB68002B14
:1015880023D06F4B1B686E4A43F480731360FFF7D8
:1015980093FA386108E0FFF78FFA02463B69D31ADD
:1015A800022B01D903231DE2654B1B6803F48063FA
:1015B800002BF0D0624B5B6823F0F8527B681B6904
:1015C8001B065F4913434B6018E05D4B1B685C4A80
:1015D80023F480731360FFF76FFA386108E0FFF7B0
:1015E8006BFA02463B69D31A022B01D90323F9E1AE
:1015F800534B1B6803F48063002BF0D17B681B6896
:1016080003F00803002B3CD07B685B69002B1CD0DF
:101618004B4BD3F894304A4A43F00103C2F8943054
:10162800FFF74AFA386108E0FFF746FA02463B69D5
:10163800D31A022B01D90323D4E1414BD3F89430B8
:1016480003F00203002BEFD01BE03D4BD3F894309E
:101658003B4A23F00103C2F89430FFF72DFA3861B2
:1016680008E0FFF729FA02463B69D31A022B01D991
:101678000323B7E1324BD3F8943003F00203002B75
:10168800EFD17B681B6803F00403002B00F0A680F1
:101698000023FB772A4B9B6D03F08053002B0DD161
:1016A800274B9B6D264A43F080539365244B9B6DD3
:1016B80003F08053BB60BB680123FB77214B1B6899
:1016C80003F48073002B18D11E4B1B681D4A43F48A
:1016D80080731360FFF7F0F9386108E0FFF7ECF961
:1016E80002463B69D31A022B01D903237AE1154B31
:1016F8001B6803F48073002BF0D07B689B68012B78
:1017080008D10F4BD3F890300D4A43F00103C2F8CB
:10171800903029E07B689B68052B15D1084BD3F8DE
:101728009030074A43F00403C2F89030044BD3F8D2
:101738009030034A43F00103C2F8903014E000BF30
:1017480000100240007000409C4BD3F890309B4A38
:1017580023F00103C2F89030984BD3F89030974AA1
:1017680023F00403C2F890307B689B68002B16D0E6
:10177800FFF7A2F938610AE0FFF79EF902463B69D4
:10178800D31A41F28832934201D903232AE18B4BC1
:10179800D3F8903003F00203002BEDD015E0FFF7EB
:1017A8008BF938610AE0FFF787F902463B69D31ADB
:1017B80041F28832934201D9032313E17F4BD3F8D6
:1017C800903003F00203002BEDD1FB7F012B05D1F4
:1017D8007A4B9B6D794A23F0805393657B689B6AAB
:1017E800002B00F0FE807B689B6A022B40F0D080C3
:1017F800724BDB687B617B6903F003027B68DB6A01
:101808009A4230D17B6903F070027B681B6B013B05
:101818001B019A4227D17B6903F4FE427B685B6B0C
:101828001B029A421FD17B6903F400337A68926BDA
:10183800072A14BF01220022D2B2934213D17B6936
:1018480003F4C0027B68DB6B5B08013B5B059A42D3
:1018580009D17B6903F0C0627B681B6C5B08013BA4
:101868005B069A426ED0BB690C2B69D0534B1B6840
:1018780003F08063002B05D1504B1B6803F08053A5
:10188800002B01D00123ADE04C4B1B684B4A23F0E1
:1018980080731360FFF710F9386108E0FFF70CF95F
:1018A80002463B69D31A022B01D903239AE0434B22
:1018B8001B6803F00073002BF0D1404BDA68404BF3
:1018C80013407A68D16A7A68126B013A120111439F
:1018D8007A68526B120211437A68D26B5208013A45
:1018E800520511437A68126C5208013A52061143A4
:1018F8007A68926B120952040A4330491343CB6049
:101908002E4B1B682D4A43F0807313602B4BDB680A
:101918002A4A43F08073D360FFF7CEF8386108E0B5
:10192800FFF7CAF802463B69D31A022B01D90323F1
:1019380058E0224B1B6803F00073002BF0D050E0F6
:1019480001234FE01D4B1B6803F00073002B48D1A7
:101958001A4B1B68194A43F080731360174BDB68F6
:10196800164A43F08073D360FFF7A6F8386108E0A1
:10197800FFF7A2F802463B69D31A022B01D90323C9
:1019880030E00E4B1B6803F00073002BF0D028E00A
:10199800BB690C2B23D0094B1B68084A23F08073C2
:1019A8001360FFF789F838610CE0FFF785F8024605
:1019B8003B69D31A022B05D9032313E00010024018
:1019C8008C809DF9094B1B6803F00073002BECD148
:1019D800064BDA680549064B1340CB6001E001234A
:1019E80000E0002318462037BD4680BD00100240A5
:1019F800FCFFEEFE80B584B000AF786039607B688C
:101A0800002B01D10123E7E0754B1B6803F00703A6
:101A18003A689A4210D9724B1B6823F00702704942
:101A28003B6813430B606E4B1B6803F007033A686F
:101A38009A4201D00123CFE07B681B6803F00203C0
:101A4800002B10D07B689A68664B9B6803F0F00304
:101A58009A4208D9634B9B6823F0F0027B689B6825
:101A6800604913438B607B681B6803F00103002BFC
:101A78004CD07B685B68032B07D15A4B1B6803F07B
:101A88000073002B21D10123A6E07B685B68022B41
:101A980007D1544B1B6803F40033002B15D10123E5
:101AA8009AE07B685B68002B07D14E4B1B6803F0FC
:101AB8000203002B09D101238EE04A4B1B6803F473
:101AC8008063002B01D1012386E0464B9B6823F0FD
:101AD80003027B685B68434913438B60FEF7ECFFA6
:101AE800F8600AE0FEF7E8FF0246FB68D31A41F205
:101AF8008832934201D903236EE03A4B9B6803F086
:101B08000C027B685B689B009A42EBD17B681B6880
:101B180003F00203002B10D07B689A68314B9B6856
:101B280003F0F0039A4208D22E4B9B6823F0F00290
:101B38007B689B682B4913438B60294B1B6803F018
:101B480007033A689A4210D2254B1B6823F0070214
:101B580023493B6813430B60214B1B6803F00703C1
:101B68003A689A4201D0012336E07B681B6803F08B
:101B78000403002B08D01B4B9B6823F4E0627B68AE
:101B8800DB68184913438B607B681B6803F0080304
:101B9800002B09D0134B9B6823F460527B681B69A8
:101BA800DB00104913438B6000F024F802460D4B0C
:101BB8009B681B0903F00F030B49CB5C03F01F0361
:101BC80022FA03F3094A1360094B1B681846FEF70B
:101BD80023FF0346FB72FB7A18461037BD4680BDCB
:101BE8000020024000100240483900080000002090
:101BF8000400002080B489B000AF0023FB610023FB
:101C0800BB613E4B9B6803F00C033B613B4BDB68BD
:101C180003F00303FB603B69002B05D03B690C2BE9
:101C280021D1FB68012B1ED1344B1B6803F008033C
:101C3800002B07D1314BD3F894301B0A03F00F0364
:101C4800FB6105E02D4B1B681B0903F00F03FB61CB
:101C58002B4AFB6952F82330FB613B69002B0DD1FD
:101C6800FB69BB610AE03B69042B02D1254BBB61D0
:101C780004E03B69082B01D1234BBB613B690C2B6A
:101C880034D11E4BDB6803F00303BB60BB68022B37
:101C980003D0BB68032B03D005E01A4B7B6105E03A
:101CA800194B7B6102E0FB697B6100BF134BDB686A
:101CB8001B0903F0070301337B60104BDB681B0A29
:101CC80003F07F037A6903FB02F27B68B2FBF3F34C
:101CD8007B610A4BDB685B0E03F0030301335B0097
:101CE8003B607A693B68B2FBF3F3BB61BB6918469A
:101CF8002437BD465DF8047B704700BF00100240E2
:101D0800603900080024F40000127A0080B400AFA3
:101D1800034B1B681846BD465DF8047B704700BF3F
:101D28000000002080B500AFFFF7F0FF0246064B29
:101D38009B681B0A03F007030449CB5C03F01F03ED
:101D480022FA03F3184680BD0010024058390008F3
:101D580080B500AFFFF7DAFF0246064B9B68DB0A47
:101D680003F007030449CB5C03F01F0322FA03F3D3
:101D7800184680BD001002405839000880B586B06A
:101D880000AF786000233B612A4B9B6D03F08053C2
:101D9800002B03D0FFF7EEF9786114E0254B9B6D1B
:101DA800244A43F080539365224B9B6D03F0805384
:101DB800FB60FB68FFF7DEF978611E4B9B6D1D4ADF
:101DC80023F0805393657B69B3F5007F0BD17B6863
:101DD800802B19D97B68A02B02D902233B6113E021
:101DE80001233B6110E07B68802B02D903233B6110
:101DF8000AE07B68802B02D102233B6104E07B6808
:101E0800702B01D101233B610B4B1B6823F00702A8
:101E180009493B6913430B60074B1B6803F0070331
:101E28003A699A4201D0012300E000231846183786
:101E3800BD4680BD001002400020024080B586B03B
:101E480000AF78600023FB740023BB747B681B68B9
:101E580003F40063002B41D07B685B6EB3F5400F41
:101E68002AD0B3F5400F24D8B3F5000F08D0B3F546
:101E7800000F1ED8002B0AD0B3F5800F10D018E041
:101E8800864BDB68854A43F48033D36015E07B6872
:101E980004330021184600F0BBFA0346FB740CE03B
:101EA8007B6820330021184600F0A6FB0346FB742C
:101EB80003E00123FB7400E000BFFB7C002B0BD187
:101EC800764BD3F8883023F440027B685B6E734905
:101ED8001343C1F8883001E0FB7CBB747B681B6846
:101EE80003F48053002B41D07B689B6EB3F1407F95
:101EF8002AD0B3F1407F24D8B3F1007F08D0B3F1E2
:101F0800007F1ED8002B0AD0B3F1807F10D018E0D4
:101F1800624BDB68614A43F48033D36015E07B6829
:101F280004330021184600F073FA0346FB740CE0F2
:101F38007B6820330021184600F05EFB0346FB74E3
:101F480003E00123FB7400E000BFFB7C002B0BD1F6
:101F5800524BD3F8883023F040727B689B6E4F4910
:101F68001343C1F8883001E0FB7CBB747B681B68B5
:101F780003F40033002B00F0A08000237B74474B50
:101F88009B6D03F08053002B01D1012300E0002357
:101F9800002B0DD0414B9B6D404A43F08053936515
:101FA8003E4B9B6D03F08053BB60BB6801237B7481
:101FB8003B4B1B683A4A43F480731360FEF77CFD81
:101FC800F86009E0FEF778FD0246FB68D31A022B99
:101FD80002D90323FB7405E0314B1B6803F48073BB
:101FE800002BEFD0FB7C002B5CD12C4BD3F890302E
:101FF80003F440737B617B69002B1FD07B68D3F8A7
:1020080084307A699A4219D0244BD3F8903023F45B
:1020180040737B61214BD3F89030204A43F48033DE
:10202800C2F890301D4BD3F890301C4A23F480330B
:10203800C2F89030194A7B69C2F890307B6903F086
:102048000103002B16D0FEF737FDF8600BE0FEF712
:1020580033FD0246FB68D31A41F28832934202D913
:102068000323FB7406E00D4BD3F8903003F0020312
:10207800002BECD0FB7C002B0CD1084BD3F8903014
:1020880023F440727B68D3F8843004491343C1F8C1
:10209800903009E0FB7CBB7406E000BF00100240F2
:1020A80000700040FB7CBB747B7C012B05D19E4BF0
:1020B8009B6D9D4A23F0805393657B681B6803F0F2
:1020C8000103002B0AD0984BD3F8883023F0030281
:1020D8007B689B6B94491343C1F888307B681B6805
:1020E80003F00203002B0AD08F4BD3F8883023F07B
:1020F8000C027B68DB6B8C491343C1F888307B6822
:102108001B6803F00403002B0AD0874BD3F88830F0
:1021180023F030027B681B6C83491343C1F8883075
:102128007B681B6803F00803002B0AD07E4BD3F8AA
:10213800883023F0C0027B685B6C7B491343C1F88D
:1021480088307B681B6803F01003002B0AD0764B9D
:10215800D3F8883023F440727B689B6C7249134330
:10216800C1F888307B681B6803F02003002B0AD075
:102178006D4BD3F8883023F440627B68DB6C6A4986
:102188001343C1F888307B681B6803F40073002B85
:102198000AD0654BD3F8883023F440227B68DB6D86
:1021A80061491343C1F888307B681B6803F4806376
:1021B800002B0AD05C4BD3F8883023F440127B689C
:1021C8001B6E59491343C1F888307B681B6803F0BC
:1021D8004003002B0AD0544BD3F8883023F44052E4
:1021E8007B681B6D50491343C1F888307B681B68B6
:1021F80003F08003002B0AD04B4BD3F8883023F42C
:1022080040427B685B6D48491343C1F888307B685E
:102218001B6803F48073002B0AD0434BD3F8883033
:1022280023F440327B689B6D3F491343C1F88830E3
:102238007B681B6803F40053002B28D03A4BD3F873
:10224800883023F040627B68DB6E37491343C1F85E
:1022580088307B68DB6EB3F1006F06D1324BDB68E8
:10226800314A43F48013D36011E07B68DB6EB3F12D
:10227800806F0CD17B6804330121184600F0C8F840
:102288000346FB74FB7C002B01D0FB7CBB747B6892
:102298001B6803F40023002B28D0234BD3F8883085
:1022A80023F040627B681B6F1F491343C1F88830D5
:1022B8007B681B6FB3F1006F06D11B4BDB681A4AB2
:1022C80043F48013D36011E07B681B6FB3F1806F18
:1022D8000CD17B6804330121184600F099F80346B5
:1022E800FB74FB7C002B01D0FB7CBB747B681B68F8
:1022F80003F48023002B2BD00B4BD3F8883023F02A
:1023080040627B685B6F08491343C1F888307B687B
:102318005B6FB3F1006F09D1034BDB68024A43F4EA
:102328008013D36014E000BF001002407B685B6F2D
:10233800B3F1806F0CD17B6804330121184600F09B
:1023480067F80346FB74FB7C002B01D0FB7CBB7455
:102358007B681B6803F48043002B2FD02B4BD3F8EA
:10236800883023F040527B689B6F28491343C1F89B
:1023780088307B689B6FB3F1805F0DD17B68043335
:102388000221184600F044F80346FB74FB7C002B3E
:1023980014D0FB7CBB7411E07B689B6FB3F1005FCA
:1023A8000CD17B6820330221184600F025F903463A
:1023B800FB74FB7C002B01D0FB7CBB747B681B6827
:1023C80003F40043002B0AD0104BD3F8883023F0D5
:1023D80080427B68DB6F0D491343C1F888307B6806
:1023E8001B6803F48033002B0BD0084BD3F88830DC
:1023F80023F000427B68D3F8803004491343C1F8C6
:102408008830BB7C18461837BD4680BD0010024096
:1024180080B584B000AF786039600023FB73754BDA
:10242800DB6803F00303002B18D0724BDB6803F062
:1024380003027B681B689A420DD17B681B68002BDE
:1024480009D06C4BDB681B0903F007035A1C7B6837
:102458005B689A4247D00123FB7344E07B681B68A2
:10246800032B18D0032B25D8012B02D0022B09D01F
:1024780020E0604B1B6803F00203002B1DD10123F1
:10248800FB731AE05B4B1B6803F48063002B16D1C7
:102498000123FB7313E0574B1B6803F40033002B35
:1024A8000FD1544B1B6803F48023002B09D101235F
:1024B800FB7306E00123FB7304E000BF02E000BFEA
:1024C80000E000BFFB7B002B0DD14A4BDB6823F0FB
:1024D80073027B6819687B685B68013B1B010B43CF
:1024E80044491343CB60FB7B002B7DD1414B1B68D8
:1024F800404A23F080631360FEF7DEFAB86009E013
:10250800FEF7DAFA0246BB68D31A022B02D9032374
:10251800FB7305E0374B1B6803F00063002BEFD11A
:10252800FB7B002B60D13B68002B11D1314B1B6921
:1025380023F41F3323F440737A68926811027A688F
:10254800D268120952040A432A4913430B6127E04F
:102558003B68012B12D1274B1B6923F4C00323F4DA
:10256800FE437A68926811027A6812695208013A41
:1025780052050A431F4913430B6111E01D4B1B69A8
:1025880023F0C06323F4FE437A68926811027A68E4
:1025980052695208013A52060A43164913430B611D
:1025A800144B1B68134A43F080631360FEF784FAE8
:1025B800B86009E0FEF780FA0246BB68D31A022B1E
:1025C80002D90323FB7305E00A4B1B6803F0006381
:1025D800002BEFD0FB7B002B06D1064B1A697B68DA
:1025E8009B69044913430B61FB7B18461037BD46B2
:1025F80080BD00BF0010024080B584B000AF786095
:1026080039600023FB736A4BDB6803F00303002B7C
:1026180018D0674BDB6803F003027B681B689A429B
:102628000DD17B681B68002B09D0614BDB681B0947
:1026380003F007035A1C7B685B689A4247D0012362
:10264800FB7344E07B681B68032B18D0032B25D849
:10265800012B02D0022B09D020E0554B1B6803F058
:102668000203002B1DD10123FB731AE0504B1B689A
:1026780003F48063002B16D10123FB7313E04C4B4A
:102688001B6803F40033002B0FD1494B1B6803F47C
:102698008023002B09D10123FB7306E00123FB7380
:1026A80004E000BF02E000BF00E000BFFB7B002B9E
:1026B8000DD13F4BDB6823F073027B6819687B6898
:1026C8005B68013B1B010B4339491343CB60FB7B20
:1026D800002B67D1364B1B68354A23F080531360B3
:1026E800FEF7EAF9B86009E0FEF7E6F90246BB68CA
:1026F800D31A022B02D90323FB7305E02C4B1B686A
:1027080003F00053002BEFD1FB7B002B4AD13B6831
:10271800002B11D1264B5B6923F41F3323F440733C
:102728007A68926811027A68D268120952040A43D8
:102738001F4913434B6111E01D4B5B6923F0C063D4
:1027480023F4FE437A68926811027A681269520883
:10275800013A52060A43164913434B61144B1B684E
:10276800134A43F080531360FEF7A6F9B86009E0F6
:10277800FEF7A2F90246BB68D31A022B02D903233B
:10278800FB7305E00A4B1B6803F00053002BEFD0E6
:10279800FB7B002B06D1064B5A697B685B690449B1
:1027A80013434B61FB7B18461037BD4680BD00BF05
:1027B8000010024080B582B000AF78607B68002BC3
:1027C80001D1012340E07B68DB6F002B06D17B68D9
:1027D800002283F878207868FDF7DEFF7B682422E2
:1027E800DA677B681B681A687B681B6822F001023D
:1027F8001A607B685B6A002B02D0786800F002FEE2
:10280800786800F04BFB0346012B01D101231BE044
:102818007B681B685A687B681B6822F490425A6080
:102828007B681B689A687B681B6822F02A029A609A
:102838007B681B681A687B681B6842F001021A6093
:10284800786800F081FE034618460837BD4680BD0B
:1028580080B5BAB000AF78607B681B68DB69C7F8E1
:10286800E4307B681B681B68C7F8E0307B681B682E
:102878009B68C7F8DC30D7F8E42040F60F03134014
:10288800C7F8D830D7F8D830002B15D1D7F8E430AE
:1028980003F02003002B0FD0D7F8E03003F020031B
:1028A800002B09D07B689B6E002B00F0CA827B68E6
:1028B8009B6E78689847C4E2D7F8D830002B00F0B0
:1028C8001781D7F8DC3003F00103002B06D1D7F8C5
:1028D800E020854B1340002B00F00A81D7F8E43044
:1028E80003F00103002B11D0D7F8E03003F4807314
:1028F800002B0BD07B681B6801221A627B68D3F817
:10290800843043F001027B68C3F88420D7F8E430B0
:1029180003F00203002B11D0D7F8DC3003F00103D9
:10292800002B0BD07B681B6802221A627B68D3F8E5
:10293800843043F004027B68C3F88420D7F8E4307D
:1029480003F00403002B11D0D7F8DC3003F00103A7
:10295800002B0BD07B681B6804221A627B68D3F8B3
:10296800843043F002027B68C3F88420D7F8E4304F
:1029780003F00803002B17D0D7F8E03003F020034A
:10298800002B05D1D7F8DC3003F00103002B0BD066
:102998007B681B6808221A627B68D3F8843043F08E
:1029A80008027B68C3F88420D7F8E43003F4006396
:1029B800002B12D0D7F8E03003F08063002B0CD046
:1029C8007B681B684FF400621A627B68D3F8843016
:1029D80043F020027B68C3F884207B68D3F88430F6
:1029E800002B00F03082D7F8E43003F02003002BEE
:1029F8000DD0D7F8E03003F02003002B07D07B6818
:102A08009B6E002B03D07B689B6E786898477B6829
:102A1800D3F88430C7F8D4307B681B689B6803F010
:102A28004003402B05D0D7F8D43003F02803002BFF
:102A38004FD0786800F09DFE7B681B689B6803F0A8
:102A48004003402B41D17B681B680833C7F89C3092
:102A5800D7F89C3053E8003FC7F89830D7F898303B
:102A680023F04003C7F8D0307B681B680833D7F8D9
:102A7800D020C7F8A820C7F8A430D7F8A410D7F8F2
:102A8800A82041E80023C7F8A030D7F8A030002BD1
:102A9800D9D17B685B6F002B13D07B685B6F134ABF
:102AA8009A637B685B6F1846FEF761F90346002B53
:102AB80017D07B685B6F9B6B7A68526F104698479C
:102AC8000FE0786800F0D4F90BE0786800F0D0F9EE
:102AD80007E0786800F0CCF97B680022C3F884200E
:102AE800B1E100BFAFE100BF200100044338000896
:102AF8007B681B6E012B40F06A81D7F8E43003F045
:102B08001003002B00F06381D7F8E03003F01003C6
:102B1800002B00F05C817B681B6810221A627B68BE
:102B28001B689B6803F04003402B40F0D4807B680F
:102B38005B6F1B685B68A7F8BE30B7F8BE30002B28
:102B480000F0AD807B68B3F85830B7F8BE209A42E1
:102B580080F0A5807B68B7F8BE20A3F85A207B6870
:102B68005B6F1B681B6803F02003002B40F0868016
:102B78007B681B68C7F88830D7F8883053E8003F6F
:102B8800C7F88430D7F8843023F48073C7F8B83096
:102B98007B681B681A46D7F8B830C7F89430C7F86E
:102BA8009020D7F89010D7F8942041E80023C7F870
:102BB8008C30D7F88C30002BDAD17B681B6808334F
:102BC8007B677B6F53E8003F3B673B6F23F0010354
:102BD800C7F8B4307B681B680833D7F8B420C7F847
:102BE8008020FB67F96FD7F8802041E80023BB6796
:102BF800BB6F002BE1D17B681B6808333B663B6EDB
:102C080053E8003FFB65FB6D23F04003C7F8B03085
:102C18007B681B680833D7F8B020FA66BB66B96EC4
:102C2800FA6E41E800237B667B6E002BE3D17B685C
:102C38002022C3F880207B6800221A667B681B6804
:102C4800FB64FB6C53E8003FBB64BB6C23F01003D0
:102C5800C7F8AC307B681B681A46D7F8AC30BB6540
:102C68007A65796DBA6D41E800233B653B6D002BB1
:102C7800E4D17B685B6F1846FEF73BF87B6802225D
:102C88005A667B68B3F858207B68B3F85A309BB211
:102C9800D31A9BB21946786800F0F4F8D5E07B683F
:102CA800B3F85830B7F8BE209A4240F0CE807B681F
:102CB8005B6F1B681B6803F02003202B40F0C58066
:102CC8007B6802225A667B68B3F8583019467868E0
:102CD80000F0D8F8B9E07B68B3F858207B68B3F8FF
:102CE8005A309BB2D31AA7F8CE307B68B3F85A3063
:102CF8009BB2002B00F0AB80B7F8CE30002B00F071
:102D0800A6807B681B68BB63BB6B53E8003F7B6393
:102D18007B6B23F49073C7F8C8307B681B681A462E
:102D2800D7F8C8307B643A64396C7A6C41E8002380
:102D3800FB63FB6B002BE4D17B681B6808337B6269
:102D48007B6A53E8003F3B623B6A23F00103C7F804
:102D5800C4307B681B680833D7F8C4203A63FB6229
:102D6800F96A3A6B41E80023BB62BB6A002BE3D1E6
:102D78007B682022C3F880207B6800221A667B6863
:102D880000229A667B681B683B613B6953E8003FF9
:102D9800FB60FB6823F01003C7F8C0307B681B6832
:102DA8001A46D7F8C030FB61BA61B969FA6941E8D7
:102DB80000237B617B69002BE4D17B6802225A6681
:102DC800B7F8CE301946786800F05CF83FE0D7F8DD
:102DD800E43003F48013002B0ED0D7F8DC3003F472
:102DE8008003002B08D07B681B684FF480121A629E
:102DF800786800F062FD2DE0D7F8E43003F0800336
:102E0800002B0ED0D7F8E03003F08003002B08D059
:102E18007B68DB6E002B1CD07B68DB6E786898477C
:102E280017E0D7F8E43003F04003002B12D0D7F8AE
:102E3800E03003F04003002B0CD0786800F013FD5D
:102E480008E000BF06E000BF04E000BF02E000BFEA
:102E580000E000BFE837BD4680BD00BF80B483B046
:102E680000AF786000BF0C37BD465DF8047B704743
:102E780080B483B000AF786000BF0C37BD465DF802
:102E8800047B704780B483B000AF78600B467B80CA
:102E980000BF0C37BD465DF8047B70472DE9B04F85
:102EA8008AB000AFF860002387F82230FB689A6880
:102EB800FB681B691A43FB685B691A43FB68DB699B
:102EC80013437B62FB681B681A68A44B1340FA68BB
:102ED8001268796A0B431360FB681B685B6823F40C
:102EE8004051FB68DA68FB681B680A435A60FB6854
:102EF8009B697B62FB681B68994A934204D0FB6814
:102F08001B6A7A6A13437B62FB681B689B6823F41D
:102F18003061FB681B687A6A0A439A60FB681B6821
:102F2800904A934226D1904BD3F8883003F003039C
:102F3800032B1BD801A252F823F000BF552F00081D
:102F4800652F00085D2F00086D2F0008012387F802
:102F5800233016E1022387F8233012E1042387F88F
:102F680023300EE1082387F823300AE1102387F87D
:102F7800233006E1FB681B687C4A934238D17A4BC0
:102F8800D3F8883003F00C030C2B2DD801A252F88B
:102F980023F000BFD12F0008F12F0008F12F0008FF
:102FA800F12F0008E12F0008F12F0008F12F000889
:102FB800F12F0008D92F0008F12F0008F12F000881
:102FC800F12F0008E92F0008002387F82330D8E004
:102FD800022387F82330D4E0042387F82330D0E095
:102FE800082387F82330CCE0102387F82330C8E083
:102FF800FB681B685E4A934225D15B4BD3F8883047
:1030080003F03003302B16D0302B18D8202B0AD0E1
:10301800202B14D8002B02D0102B08D00FE000234F
:1030280087F82330ADE0022387F82330A9E0042392
:1030380087F82330A5E0082387F82330A1E0102380
:1030480087F823309DE0FB681B684A4A934225D1E4
:10305800454BD3F8883003F0C003C02B16D0C02BE3
:1030680018D8802B0AD0802B14D8002B02D0402BE4
:1030780008D00FE0002387F8233082E0022387F886
:1030880023307EE0042387F823307AE0082387F88A
:10309800233076E0102387F8233072E0FB681B6842
:1030A800354A93422AD1304BD3F8883003F4407321
:1030B800B3F5407F1AD0B3F5407F1BD8B3F5007F36
:1030C8000CD0B3F5007F15D8002B03D0B3F5807F63
:1030D80008D00FE0002387F8233052E0022387F856
:1030E80023304EE0042387F823304AE0082387F88A
:1030F800233046E0102387F8233042E0FB681B6842
:10310800174A93423AD1184BD3F8883003F44063F6
:10311800B3F5406F1AD0B3F5406F1BD8B3F5006F05
:103128000CD0B3F5006F15D8002B03D0B3F5806F22
:1031380008D00FE0002387F8233022E0022387F825
:1031480023301EE0042387F823301AE0082387F889
:10315800233016E0102387F8233012E0F369FFEFDD
:103168000080004000380140001002400044004048
:1031780000480040004C004000500040102387F8F1
:103188002330FB681B689D4A934279D197F8233016
:10319800082B23D801A252F823F000BFC931000838
:1031A800E5310008D1310008E5310008D7310008C1
:1031B800E5310008E5310008E5310008DF31000895
:1031C800FEF7B0FDF8610FE08D4BFB610CE0FEF7F8
:1031D80011FDF86108E02023FB6105E00023FB6195
:1031E800012387F8223000BFFB69002B00F0F9802B
:1031F800FB685A6813465B001344FA699A4205D380
:10320800FB685B681B03FA699A4203D9012387F8B4
:103218002230E6E0FB6900221C4615464FF000020A
:103228004FF000032B0243EA14632202F96849684D
:10323800490800208846814612EB080A43EB090B2F
:10324800FB685B6800223B607A60D7E90023504640
:103258005946FCF7B5FF02460B461346BB61BB69EE
:10326800B3F5407F08D3BB69B3F5801F04D2FB6870
:103278001B68BA69DA60B4E0012387F82230B0E04D
:10328800FB68DB69B3F5004F5CD197F82330082B56
:1032980026D801A252F823F0C5320008CD32000822
:1032A800D5320008E9320008DB320008E9320008AC
:1032B800E9320008E9320008E3320008FEF732FD7F
:1032C800F86113E0FEF744FDF8610FE04C4BFB6139
:1032D8000CE0FEF78FFCF86108E02023FB6105E0B5
:1032E8000023FB61012387F8223000BFFB69002B14
:1032F80077D0FB695A00FB685B685B081A44FB6877
:103308005B68B2FBF3F3BB61BB690F2B16D9BB69D2
:10331800B3F5803F12D2BB699BB223F00F03FB8247
:10332800BB695B089BB203F007039AB2FB8A13439D
:10333800FB82FB681B68FA8ADA6052E0012387F88F
:1033480022304EE097F82330082B27D801A252F8F4
:1033580023F000BF81330008893300089133000847
:10336800A533000897330008A5330008A5330008E3
:10337800A53300089F330008FEF7D4FCF86113E07A
:10338800FEF7E6FCF8610FE01D4BFB610CE0FEF771
:1033980031FCF86108E02023FB6105E00023FB61B4
:1033A800012387F8223000BFFB69002B19D0FB6886
:1033B8005B685A08FB691A44FB685B68B2FBF3F365
:1033C800BB61BB690F2B09D9BB69B3F5803F05D237
:1033D800BB699AB2FB681B68DA6002E0012387F8D0
:1033E8002230FB6800229A66FB680022DA6697F8AA
:1033F800223018462837BD46BDE8B08F008000400F
:103408000024F40080B483B000AF78607B685B6A06
:1034180003F00803002B0AD07B681B685B6823F461
:1034280000417B685A6B7B681B680A435A607B685B
:103438005B6A03F00103002B0AD07B681B685B689A
:1034480023F400317B689A6A7B681B680A435A60D8
:103458007B685B6A03F00203002B0AD07B681B6859
:103468005B6823F480317B68DA6A7B681B680A43EF
:103478005A607B685B6A03F00403002B0AD07B6800
:103488001B685B6823F480217B681A6B7B681B6868
:103498000A435A607B685B6A03F01003002B0AD06A
:1034A8007B681B689B6823F480517B689A6B7B68F8
:1034B8001B680A439A607B685B6A03F02003002B51
:1034C8000AD07B681B689B6823F400517B68DA6B21
:1034D8007B681B680A439A607B685B6A03F0400359
:1034E800002B1AD07B681B685B6823F480117B680B
:1034F8001A6C7B681B680A435A607B681B6CB3F5BF
:10350800801F0AD17B681B685B6823F4C0017B6855
:103518005A6C7B681B680A435A607B685B6A03F0D5
:103528008003002B0AD07B681B685B6823F40021AA
:103538007B689A6C7B681B680A435A6000BF0C372B
:10354800BD465DF8047B704780B598B002AF7860DF
:103558007B680022C3F88420FDF7AEFA78657B68A3
:103568001B681B6803F00803082B2ED16FF07E43FD
:1035780000937B6D00224FF40011786800F08CF8FE
:103588000346002B21D07B681B68BB63BB6B53E8E9
:10359800003F7B637B6B23F080033B657B681B6884
:1035A8001A463B6D7B643A64396C7A6C41E80023B7
:1035B800FB63FB6B002BE6D17B682022DA677B6814
:1035C800002283F87820032362E07B681B681B686D
:1035D80003F00403042B49D16FF07E4300937B6D05
:1035E80000224FF48001786800F056F80346002B5B
:1035F8003CD07B681B687B627B6A53E8003F3B6278
:103608003B6A23F49073FB647B681B681A46FB6C67
:103618003B63FA62F96A3A6B41E80023BB62BB6A12
:10362800002BE6D17B681B6808333B613B6953E894
:10363800003FFB60FB6823F00103BB647B681B68E9
:103648000833BA6CFA61BB61B969FA6941E80023C9
:103658007B617B69002BE5D17B682022C3F8802041
:103668007B68002283F87820032311E07B682022FE
:10367800DA677B682022C3F880207B6800221A66FC
:103688007B6800225A667B68002283F87820002332
:1036980018465837BD4680BD80B584B000AFF86085
:1036A800B9603B601346FB714FE0BB69B3F1FF3F64
:1036B8004BD0FDF701FA02463B68D31ABA699A4221
:1036C80002D3BB69002B01D103234EE0FB681B68C2
:1036D8001B6803F00403002B37D0BB68802B34D061
:1036E800BB68402B31D0FB681B68DB6903F008031B
:1036F800082B10D1FB681B6808221A62F86800F0D2
:1037080038F8FB680822C3F88420FB68002283F895
:103718007820012329E0FB681B68DB6903F4006358
:10372800B3F5006F11D1FB681B684FF400621A6291
:10373800F86800F01EF8FB682022C3F88420FB68B4
:10374800002283F8782003230FE0FB681B68DA69FE
:10375800BB681340BA689A420CBF01230023DBB24E
:103768001A46FB799A42A0D0002318461037BD4666
:1037780080BD80B495B000AF78607B681B687B63C0
:103788007B6B53E8003F3B633B6B23F49073FB6414
:103798007B681B681A46FB6C3B64FA63F96B3A6CEE
:1037A80041E80023BB63BB6B002BE6D17B681B6839
:1037B80008333B623B6A53E8003FFB61FB6923F037
:1037C8000103BB647B681B680833BA6CFA62BB628E
:1037D800B96AFA6A41E800237B627B6A002BE5D16B
:1037E8007B681B6E012B18D17B681B68FB60FB682C
:1037F80053E8003FBB60BB6823F010037B647B6821
:103808001B681A467B6CBB617A617969BA6941E8C1
:1038180000233B613B69002BE6D17B682022C3F87B
:1038280080207B6800221A667B6800229A6600BFA7
:103838005437BD465DF8047B704780B584B000AF4F
:1038480078607B689B6AFB60FB680022A3F85A20BB
:10385800FB680022A3F85220F868FFF709FB00BFB5
:103868001037BD4680BD80B588B000AF78607B68F2
:103878001B68FB60FB6853E8003FBB60BB6823F034
:103888004003FB617B681B681A46FB69BB617A6170
:103898007969BA6941E800233B613B69002BE6D1AD
:1038A8007B682022DA677B680022DA667868FFF78F
:1038B800D5FA00BF2037BD4680BD80B483B000AFC5
:1038C800786000BF0C37BD465DF8047B7047024442
:1038D8000346934200D1704703F8011BF9E7000043
:1038E80070B50D4D0D4C641BA4100026A64209D1DD
:1038F8000B4D0C4C00F018F8641BA4100026A642CF
:1039080005D170BD55F8043B98470136EEE755F8E8
:10391800043B98470136F2E79839000898390008BF
:10392800983900089C390008F8B500BFF8BC08BCF5
:103938009E467047F8B500BFF8BC08BC9E46704765
:103948000000000000000000010203040607080947
:103958000000000001020304A0860100400D0300DE
:10396800801A060000350C0040420F0080841E00BB
:1039780000093D0000127A000024F40000366E01B0
:083988000048E801006CDC02BC
:0839900068C8FF7F0100000080
:04399800AD01000875
:04399C008901000895
:0C39A00000093D001000000001000000C4
:040000050800098D59
:00000001FF
